:020000040000FA
:02000000402896
:080008008B130B100714851E79
:100010004530051E4730051C1930851C1C30051D58
:100020004230061E4430861E4A30A30063208501FC
:0600300086010B108B1786
:10008000831203179E019F0183160313FF3085001F
:100090008600FC3087007F308100FF3095003730CC
:1000A000960083120317FF3095007030960083127C
:1000B0000313870188308B00A5010030A200453072
:1000C000A3006300612882202208A4007420A409F0
:1000D00074202308A4007420A4097420BD20C42027
:1000E000C420C420871008000830A50003107C201D
:1000F000A50B7728A40C0800A40C0318BD20031C32
:10010000B6200800FF30A0008F205930A0008F20BB
:100110000030A000A220E930A000A2200800972013
:10012000A00B8F280800AB20A00B932808000230FA
:10013000A1008714A10B9A280330A1008710A10BFE
:100140009F280800000000000000000000000000E0
:10015000A00BA22808000330A1000510A10BAE28B7
:100160000130A1000510A10BB32808001830A00031
:100170008F201430A000932008001830A0008F209A
:100180004530A00093200800A00BC428A10BC42870
:02019000080065
:02400E00D430AC
:00000001FF
